:020000040000FA
:10000000087500203104000039040000D971000097
:100010003D0400003F040000410400000000000017
:100020000000000000000000000000004304000089
:1000300045040000000000004704000049040000DF
:100040004B0400004D0400004F0400005104000068
:100050005304000055040000570400005904000038
:100060005B0400005D0400005F0400006104000008
:1000700063040000650400006704000069040000D8
:100080006B0400006D0400006F04000071040000A8
:100090007304000075040000770400007904000078
:1000A0007B0400007D0400007F0400008104000048
:1000B0008304000085040000870400008904000018
:1000C0008B0400008D0400008F04000091040000E8
:1000D00093040000950400009704000099040000B8
:1000E0009B0400009D040000000000009F0400002D
:1000F000A1040000A3040000A5040000A704000060
:10010000A9040000AB040000AD040000AF0400002F
:100110000000000000000000B1040000B304000073
:10012000B5040000B7040000B9040000BB040000DF
:10013000BD040000BF040000C1040000C3040000AF
:1001400000000000000000000000000000000000AF
:10015000C5040000C7040000C9040000CB0400006F
:10016000000000000000000000000000000000008F
:10017000000000000000000000000000000000007F
:10018000000000000000000000000000000000006F
:10019000000000000000000000000000000000005F
:1001A000000000000000000000000000000000004F
:1001B000CD040000CF040000D1040000D3040000EF
:1001C000D5040000D7040000D9040000DB040000BF
:1001D000DD040000DF040000E1040000E30400008F
:1001E000E5040000E7040000E9040000000000004E
:1001F00000000000EB040000ED040000EF0400002C
:10020000F1040000F3040000000000000000000002
:10021000F5040000F7040000F9040000FB040000EE
:10022000FD040000FF0400000105000003050000BC
:100230000505000007050000090500000B0500008A
:100240000D0500000F05000011050000130500005A
:100250001505000017050000190500001B0500002A
:100260001D0500001F0500002105000000F002F838
:1002700000F0B6F80AA090E8000C82448344AAF18A
:100280000107DA4501D100F0ABF8AFF2090EBAE888
:100290000F0013F0010F18BFFB1A43F001031847BA
:1002A000A84F0300C84F03000A444FF0000C10F899
:1002B000013B13F0070408BF10F8014B1D1108BFE4
:1002C00010F8015B641E05D010F8016B641E01F884
:1002D000016BF9D113F0080F1EBF10F8014BAD1CD4
:1002E0000C1B09D16D1E58BF01F801CBFAD505E0F2
:1002F00014F8016B01F8016B6D1EF9D59142D6D34C
:10030000704700000023002400250026103A28BF73
:1003100078C1FBD8520728BF30C148BF0B60704777
:100320006E2900F0AB83702900F0ED84662930F06F
:10033000C582652930F0C282672930F0BF82612909
:1003400030F0BE8203681B0A28BF41F08001692992
:1003500000F05883642900F05583752900F052831A
:100360006F2900F07B84782900F0B984E92900F036
:100370001584E42900F01284F52900F00F84EF2998
:1003800000F07884F82900F0B8840368DB0928BFFE
:1003900041F08001632901F0DB81732901F0E081E4
:1003A000E32901F0EB81F32901F0F081002070478F
:1003B0001FB530F034FA9DE8030000F07FFA01F039
:1003C00041FA0400002000212FF022FB401C606055
:1003D000002000212FF006FBE0601FBD10B510BD0E
:1003E00001F003FA1146FFF7E3FF22F03DFD01F0B3
:1003F000DFFA03B4FFF7F2FF03BC1AF0B3F8000012
:100400000138FDD170470000EFF3108072B67047DD
:10041000EFF310807047EFF3108062B6704730BF83
:10042000704780F311887047EFF311807047000028
:100430003F4880473F480047FEE7FEE7FEE7FEE70C
:10044000FEE7FEE7FEE7FEE7FEE7FEE7FEE7FEE784
:10045000FEE7FEE7FEE7FEE7FEE7FEE7FEE7FEE774
:10046000FEE7FEE7FEE7FEE7FEE7FEE7FEE7FEE764
:10047000FEE7FEE7FEE7FEE7FEE7FEE7FEE7FEE754
:10048000FEE7FEE7FEE7FEE7FEE7FEE7FEE7FEE744
:10049000FEE7FEE7FEE7FEE7FEE7FEE7FEE7FEE734
:1004A000FEE7FEE7FEE7FEE7FEE7FEE7FEE7FEE724
:1004B000FEE7FEE7FEE7FEE7FEE7FEE7FEE7FEE714
:1004C000FEE7FEE7FEE7FEE7FEE7FEE7FEE7FEE704
:1004D000FEE7FEE7FEE7FEE7FEE7FEE7FEE7FEE7F4
:1004E000FEE7FEE7FEE7FEE7FEE7FEE7FEE7FEE7E4
:1004F000FEE7FEE7FEE7FEE7FEE7FEE7FEE7FEE7D4
:10050000FEE7FEE7FEE7FEE7FEE7FEE7FEE7FEE7C3
:10051000FEE7FEE7FEE7FEE7FEE7FEE7FEE7FEE7B3
:10052000FEE7000004480549054A064B70470000F5
:10053000298E01006D020000086800200875002067
:10054000086B0020086B0020704770B5064600F06D
:1005500099F9056806F10B0020F00704B4429CBF2E
:10056000002070BD2B466A68BAB11068A04210D353
:1005700004F1080188423CBF5068586007D35168B5
:10058000101941601168091B016058601460101D4A
:1005900070BD13465268002AE7D12146284600F074
:1005A00079F90028DED170BD70B50446051F00F052
:1005B00069F90068002C14BF446870BD002C18BF96
:1005C000AC423CBF20466468F8D301680A18AA42CE
:1005D00018BF456003D12A680546114401602868A8
:1005E0004119A1421CBF6C6070BD616869602168DF
:1005F0000844286070BD00000FB41CB5084B06AA63
:100600007B4469460090059800F051FA04460020AA
:10061000694600F05FFA20461CBC5DF814FB000040
:10062000D104000040EA010310B59B070FD1042A52
:100630000DD310C808C9121F9C42F8D020BA19BAAD
:10064000884201D9012010BD4FF0FF3010BD1AB112
:10065000D30703D0521C07E0002010BD10F8013B67
:1006600011F8014B1B1B07D110F8013B11F8014B8E
:100670001B1B01D1921EF1D1184610BD032A40F276
:10068000308010F0030C00F0158011F8013BBCF134
:10069000020F624498BF11F801CB00F8013B38BF4C
:1006A00011F8013BA2F1040298BF00F801CB38BF5A
:1006B00000F8013B11F0030300F02580083AC0F078
:1006C000088051F8043B083A51F804CBA0E8081020
:1006D000F5E7121D5CBF51F8043B40F8043BAFF353
:1006E0000080D20724BF11F8013B11F801CB48BFAD
:1006F00011F8012B24BF00F8013B00F801CB48BFE3
:1007000000F8012B704710B5203AC0F00B80B1E81B
:100710001850A0E81850B1E81850A0E81850203A36
:10072000BFF4F5AF5FEA027C24BFB1E81850A0E83F
:10073000185044BF18C918C0BDE810405FEA827C59
:1007400024BF51F8043B40F8043B08BF7047D20770
:1007500028BF31F8023B48BF11F8012B28BF20F811
:10076000023B48BF00F8012B70474FF000020429FC
:10077000C0F0128010F0030C00F01B80CCF1040CD0
:10078000BCF1020F18BF00F8012BA8BF20F8022B04
:10079000A1EB0C0100F00DB85FEAC17C24BF00F8AA
:1007A000012B00F8012B48BF00F8012B70474FF0D8
:1007B000000200B5134694469646203922BFA0E8B1
:1007C0000C50A0E80C50B1F12001BFF4F7AF0907BD
:1007D00028BFA0E80C5048BF0CC05DF804EB8900AE
:1007E00028BF40F8042B08BF704748BF20F8022BF1
:1007F00011F0804F18BF00F8012B70470000000077
:1008000030B44FF0013C50F8042B51F8043BCCFAC3
:1008100052F4D51A20D1FCB950F8042B51F8043BFE
:10082000CCFA52F4D51A17D1B4B950F8042B51F8B8
:10083000043BCCFA52F4D51A0ED16CB950F8042B03
:1008400051F8043BCCFA52F4D51A05D1002CDAD079
:1008500030BC4FF00000704729BAB1FA81F111F0B5
:100860001801D1F120008440F2D1CA40CB4012F0EF
:10087000FF0213F0FF0330BCD01A70477047704777
:100880007047704700487047D8090020704770478C
:100890007047704738B504460A4600206946AFF3F2
:1008A0000080002808BF38BD02460099204600F0AD
:1008B00001FB012038BD012000F090BFF8B5AFF377
:1008C0000080054600200C46102000BF0646A819EF
:1008D000A0420DD9324669460020AFF300800700E0
:1008E00008BF00F07BFF0098A04218BF0546C4195E
:1008F000FFF7C8FF05600746F01D20F00700461906
:10090000284600F00AF8B44208BFF8BDA21B3146E1
:100910003868BDE8F84000F0CDBA00210160C0E9B8
:10092000011070471020704710B500F0BFFA006842
:1009300010BD10B5044600F0B9FA046010BD70B5E2
:10094000044685690068C10601D5302600E02026EE
:10095000C00707D070BDD4E9012130469047206A16
:10096000401C20626D1EF6D570BD70B504468569C9
:100970000078C00707D170BDD4E90121202090473D
:10098000206A401C20626D1EF6D570BD09684A05BC
:1009900001D540B27047C905FCD500B2704709685F
:1009A0004A0501D5C0B27047C905FCD580B2704771
:1009B00070B50C460546012A05D02878800600D57A
:1009C000EA69002302E0012305E05B1C934202D2A6
:1009D000E05C0028F9D1A869E618C01AA861286A65
:1009E000184428622846FFF7AAFF04E0D5E9012150
:1009F00014F8010B9047B442F8D32846FFF7B5FF2F
:100A000070BD00002DE9F0410646002410687529EC
:100A1000314616A510D0FFF7B9FF002802DA404290
:100A200013A507E031688A0701D512A502E049073E
:100A300004D511A5012401E0FFF7B1FF00210A222E
:100A400006F1240709E0B0FBF2FCB0FBF2F302FB75
:100A50001C00303078541846491C0028F3D1234636
:100A60002A463046BDE8F04100F083BA000000009D
:100A70002D0000002B00000020000000116802681B
:100A8000006A530501D508700AE0D30501D5088036
:100A900006E0130603D5C217C1E9000200E00860B2
:100AA0000120704701694A1C02610878704700B54F
:100AB0008FB0CDE901310021059105497944CDE997
:100AC00003101146684600F029F90FB000BD000080
:100AD000E5FFFFFF0A6802F8010B0A60704700009B
:100AE0002DE9FF5F15468A460446DFF8AC80F844DE
:100AF0000027D8E900103E46CDE9001010E03AF892
:100B000016106A4602A800F045FE411C07D0217865
:100B1000890603D5E269391891420DD80744761C3D
:100B20002078800602D5E069B84205DDAE42E6DBFA
:100B30003AF816000028E2D1A069C01BA061204647
:100B4000FFF7FDFED8E90010CDE90010002017E006
:100B50003AF818106A4602A800F01CFEB0F1FF3FF8
:100B600081460BD000250DF1080B05E0D4E90121E9
:100B70001BF8050090476D1C4D45F7D308F10100A7
:100B8000B0428046E4DB206A384420622046FFF70A
:100B9000ECFEBDE8FF9F0000560903002DE9F0417F
:100BA0008046D21D22F007020025D2E90002F52975
:100BB00015A614D0011E72F1000106DA0023D0EB55
:100BC000030063EB020211A608E0D8F800108B07BF
:100BD00001D50FA602E0490701D50EA60125114651
:100BE000002408F1240704E000F07EF930323A5581
:100BF000641C50EA0102F7D12B463246214640469A
:100C0000BDE8F04100F0B5B9000000002D00000083
:100C10002B0000002000000030B4002100F124046B
:100C200008E002F00705D208303542EA4372DB08DB
:100C30006554491C52EA0305F3D10468002310A24D
:100C4000250708D504F020040C4304D0C46901230F
:100C50000CA2641EC46130BC00F08BB910B5044610
:100C600021461068FFF79BFE02462046BDE8104073
:100C70000023D1E7D21D22F00701D1E90023CBE701
:100C80000000000030000000F0B40D4601880905A6
:100C900002D5214C7C4402E01F4C7C440E340021E0
:100CA00000F1240608E002F00F071209E75D42EAAE
:100CB00003721B097754491C52EA0307F3D10278E7
:100CC0000023120704D5702D06D009B10223113478
:100CD0002246F0BC00F04DB901231034F8E770B59E
:100CE00004460D4621461068FFF759FE0246294684
:100CF0002046BDE870400023C6E7D21D22F007035E
:100D0000D3E90023C0E70368126843F020030360BF
:100D10000823C3610023B7E7B80703002DE9F05F9C
:100D2000894604464FF0000ADFF874B1FB44C0F86E
:100D300020A02046E1688847002874D0252806D0E6
:100D4000D4E901219047206A401C2062F1E7002687
:100D50005F462046E16888472028054607DB312D9D
:100D600005D2781910F8200C08B10643F1E7B00756
:100D700001D526F00406C4F81CA00027C4F818A06A
:100D80002A2D09D028462EF0C1F938B304EB870884
:100D9000303DC8F8185019E059F8041B204604EB00
:100DA00087029161E1688847012F054618D1E06903
:100DB000002820DA26F020061DE0D8F8180000EB05
:100DC000800005EB40003038C8F818002046E16884
:100DD000884705462EF09AF90028EED1012F0AD057
:100DE0002E2D08D12046E16888477F1C0546022F3A
:100DF00046F02006C4DBA069002803DA404246F032
:100E00000106A061F00701D026F010066C2D0BD072
:100E1000682D09D04C2D39D06A2D35D0742D35D0A0
:100E20007A2D33D016E038E0E1682F462046884717
:100E3000B842054609D16C2F26D04FF48060E16896
:100E4000064320468847054604E06C2F1AD04FF42D
:100E5000807006430DB3A5F14100192802D8203552
:100E600046F400664A462946204626604E46FFF76D
:100E700057FA80B101280BD0F61D26F0070000F1CB
:100E8000080956E74020E4E78020D8E70020D6E7AD
:100E900006F104094DE7284652E7206ABDE8F09FB5
:100EA0004807030000487047D009002000487047F9
:100EB000D0090020034640688C46002818BF8842AD
:100EC0003CBF03464068F8D318681844884207D0EE
:100ED0000CF1030020F00700001D411A521A0146D0
:100EE000081D0A60FFF760BB30B5B0F10A0271F16E
:100EF00000034FEA900E4EEA817EB0EB0E0061EBEC
:100F000091014FEA101E4EEA017E10EB0E0041EBFC
:100F100011114FEA102E4EEA016E10EB0E0041EB5C
:100F200011214FEA104E4EEA014E10EB0E0041EB3C
:100F30001141401841F100014FEAD00040EA4170F0
:100F40004FEAD1014FEA810444EA907410EB800526
:100F500044EB01046D1944EB0404521BA3414FF010
:100F6000000348BF0A3200D530BD401C41F10001EA
:100F700030BD2DE9F0470D4699469246044600F1F2
:100F800024080168880604D5E06921F01001216079
:100F900000E00120A84201DD471B00E00027A16915
:100FA0007A1902EB0900081AA0612078C00602D461
:100FB0002046FFF7C4FC002608E0D4E901211AF816
:100FC00006009047206A401C761C20624E45F4DBE8
:100FD0002078C0060AD52046FFF7B1FC06E0D4E928
:100FE000012130209047206A401C2062381EA7F162
:100FF0000107F4DC07E0D4E9012118F80500904767
:10100000206A401C2062281EA5F10105F3DC204661
:10101000FFF7ABFC2078000602D50220BDE8F08780
:101020000120FBE72DE9FF4F0C461E464FF0FF372E
:101030008BB0D2E90001DDF860800A908A46C1F3E6
:101040000A5505B93D46002108464FF00000BAF1A7
:10105000000F00F4400005DA00EB80004FF440017F
:1010600001EA50004FEA9059B9F1010F00DDB9468D
:101070000A9850EA4A000ED044F61050A5F2FF3507
:1010800045432F14B8F1000F1ED07542291E1EDDF6
:10109000C9F100021CE0B8F1010F4FF0000001D0CF
:1010A000302103E0F24305E02154401CB042FBDB59
:1010B00030460022002121540B99C1F80880C1E973
:1010C00000200FB0BDE8F08FBD1B6D1CDEE74A4667
:1010D00000DA694206A800F0F9FB06AB93E80700C6
:1010E00003AB83E8070050460A9927F0D9FA8DE848
:1010F0000700A0F500501F3800900398002D0ADD6E
:1011000042F21F014A460844002303A9039068469F
:1011100027F042FD09E0A0F500504A461F380023A1
:1011200003A90390684627F04CFD8DE807000004F2
:10113000000C03D04FF0FF30410800E01046B8F13A
:10114000000F03D00022009215461EE0751E05D444
:10115000FFF7CAFE303262556D1EF9D5B346012243
:10116000084302D000227F1C04E02078302801D1FF
:1011700000227F1E002A099784D01DE0112D07DA76
:10118000FFF7B2FE303262556D1C50EA0102F5D114
:10119000084302D00098C8B10EE00021681E05E0A7
:1011A000235C625C63542254401E491C8142F7DB7D
:1011B000AB46A81B401E0990002004F80B000B98BA
:1011C000099AC0F80880C0E9002B7AE711264FF091
:1011D000000857E72DE9F04F88460446D21D22F05B
:1011E000070191B0D1E90001CDE90A012BF03CF9EA
:1011F00002460B98C00F01D02D2007E02068810720
:1012000001D52B2002E0202101EAC000032A099029
:1012100001D0072A05DB03464146204600F016FBB5
:101220000BE12078800601D5E06900E00620B8F1E6
:10123000650F814606D0B8F1660F18D0B8F1670F78
:1012400070D131E00020B9F1110F009001DB1123C2
:1012500001E009F101030AAA01A90CA8FFF7E2FEC7
:10126000DDE90C70002609F10105834647E0012005
:101270004B4600904FF000470AAA01A90CA8FFF7BF
:10128000D1FEDDE90DB00C995D46002610B909F1DB
:1012900001000D18B9EB050003D4C0F1FF3609F1C8
:1012A0000105A5EB09002BE0B9F1010F01DA4FF0C0
:1012B00001090020B9F1110F0090484601DD11230A
:1012C00000E003460AAA01A90CA8FFF7ABFEDDE97E
:1012D0000C704D4600268346207800070AD4AB45A3
:1012E00000DA5D4601A8012D04DD411911F8011C49
:1012F000302907D04F4502DA17F1040F04DA012034
:1013000082460FE06D1EEEE7002F02DCED1B3E442F
:1013100003E0781CA84200DD7D1CB81B00F1010A27
:101320004FF000472078000703D4AA4501DB4FF0B7
:10133000FF3A0021B7F1004F0DF143088DF843103B
:1013400024D002202B23002F01DA7F422D230A21F3
:10135000021EA0F1010000DC5FB197FBF1FC97FBDE
:10136000F1F201FB1C7C17460CF1300C08F801CDA2
:10137000EEE7A8F1010003702188090501D5452198
:1013800000E06521A0F1010800F8011C09980FA9EF
:10139000A1EB0807FF1D00B10120411901EBEA7024
:1013A000A1693844081A401EA0612078C00602D402
:1013B0002046FFF7C4FA099828B1D4E901219047E3
:1013C000206A401C20622078C00622D52046FFF704
:1013D000B6FA1EE0002E04DBB34502DD01A8805DF5
:1013E00000E03020D4E901219047206A401C2062AF
:1013F000761CAAF101005FEA000A0AD100F022FA85
:10140000C0680168405CD4E901219047206A401C13
:101410002062281EA5F10105DCDC07E0D4E90121EA
:1014200018F8010B9047206A401C2062381EA7F173
:101430000107F3DC2046FFF798FA032011B041E6DC
:101440002DE9F04F04460D46D21D22F0070089B069
:10145000D0E90097484639462BF006F80246F80FC7
:1014600001D02D2307E02068810701D52B2302E05E
:10147000202101EAC0038DF820300BB1012000E0EB
:101480000020032A824601D0072A04DB2946204691
:1014900000F0DCF93FE12078800601D40D2500E062
:1014A000E569C7F30A560D2D49DA00214FEA175BAB
:1014B00008464FF00000002F00F4400007DA00EB70
:1014C00080004FF4400100EBD07001EA600081150C
:1014D000012901DD4FF0FF3100224FEA850CBCF1FC
:1014E000180F06D31346ACF118004FF08052C240DB
:1014F00003E04FF4801323FA0CF30CF10C0CBCF155
:10150000200F04D3ACF1200C09FA0CF001E007FA2B
:101510000CF000294FF0004801DD18B90FE00ED1A2
:1015200040450CD319EB02095F4121B9404502D176
:101530009F4329EA0209BBEB175F00D0761C208885
:10154000000502D57B48784402E07A48784419388F
:1015500008AA302302F80A30037C0AF10101002EA8
:101560000AF1020A53546A4602DC4FF0300101E0EE
:101570004FF031014FF001088DF8001002D0A6F2B3
:10158000FF3603E059EA470100D06B4E002D02DC24
:101590002178090704D54FF002082E218DF801109B
:1015A000C44600210BE0C7F303433F01C35C491C61
:1015B0006D1E02F80830052908F1010801DA002D36
:1015C000F1DC00210CE000EB1973491C1B786D1E47
:1015D000082902F808304FEA091908F1010801DA70
:1015E000002DF0DC21688B0602D516E0A8F1010879
:1015F000E04505DD02EB080313F8013C302BF5D084
:10160000B8F1000F09DD02EB080313F8013C2E2BA3
:1016100003D1090701D4A8F10108002D05DD3E2101
:1016200002F808106D1E08F10108407C002E02F837
:10163000080008F1010804DA2D20764202F80800BB
:1016400002E02B2002F808000A214FF47A7086424B
:1016500008F101080BDB96FBF0F3303302F8083099
:1016600096FBF0F308F1010800FB136601E0642E1D
:101670000CDB642096FBF0F3303302F8083096FB65
:10168000F0F308F1010800FB136601E00A2E06DB07
:1016900096FBF1F0303002F8080008F1010896FBE3
:1016A000F1F001FB1060303002F80800A16908F188
:1016B000010808EB050202EB0A00081AA061207875
:1016C000C00602D42046FFF73AF9216A08AE01EBC2
:1016D0000A00206204E0D4E9012116F8010B9047CA
:1016E000BAF1010AF7D22078C00602D52046FFF7EA
:1016F00026F96E4609E016F8010B3E280FD0D4E912
:1017000001219047206A401C2062B8F10108F2D202
:101710002046FFF72AF909B00320BDE8F08F206AC0
:101720002844206203E0D4E90121302090476D1E57
:10173000EBD3F8E7A900030002FCFFFF10B54369F3
:1017400013B1AFF3008001E0FFF732F9012010BDC3
:10175000127800F124010A7000224A700122EDE79C
:1017600011684FF0FF32E9E710B5436913B1AFF3E9
:10177000008001E0FFF7B4F9012010BD128800F1EC
:10178000240182840022C2840122EDE711684FF017
:10179000FF32E9E72DE9F04116460C46054600F018
:1017A00049F8036893F80101012807D0FF2C12D8EB
:1017B000185D80B101202C70BDE8F081D3F80701DD
:1017C0003246214603F20713C7182846BC46BDE837
:1017D000F041002360474FF0FF30EDE710B500F017
:1017E000F5F8BDE8104000F0ECB87546FFF75AFB7D
:1017F000AE4605006946534620F00700854618B0FE
:1018000020B5FEF78FFEBDE820404FF000064FF0F8
:1018100000074FF000084FF0000BAC46ACE8C009E1
:10182000ACE8C009ACE8C009ACE8C00921F0070188
:101830008D46704710B500F005F8001D10BD00BFC3
:10184000D1E1020000487047F00900202DE9F04185
:101850001F46044603260168072A01F4006004DBE2
:1018600008B116A505E016A503E008B115A500E02E
:1018700015A521F010002060A069C01EA0610FB165
:10188000401EA0612046FFF75AF84FB1D4E901216C
:1018900038469047206A401C2062C01C206206E047
:1018A000206AFAE7D4E9012115F8010B9047761E6A
:1018B000F8D22046FFF759F8BDE8F0814E414E00BE
:1018C0006E616E00494E4600696E66002DE9F04774
:1018D000814616468AB0354878440DC88DE80D001B
:1018E00032487844801C03AC0DC884E80D0041F6F2
:1018F0009B300844372190FBF1F290FBF1F5A5F104
:10190000800501FB12041B3C02D56442012000E06B
:101910000020DFF898A080460027FA44AAF1BE0A0A
:101920000EE0E0070AD03246684607EB4701012384
:101930000AEB810127F045F98DE8070064107F1C50
:10194000002CEED1194F7F44AE3F19E0E80715D0C7
:1019500007EB04100DF1180A90E80E008AE80E005B
:10196000C068F04201D1981908903246012306A9B7
:1019700003A827F026F903AB83E807006D10641C69
:10198000002DE3D14FF0010332466946B8F1000F54
:1019900003A802D027F000F901E027F012F9C9E905
:1019A0000001C9F808200AB0BDE8F087A8FD0200D0
:1019B00010B50446AFF300802046BDE81040FEF7A6
:1019C00018BD002801D018F0CDBD704710B5012812
:1019D00005D0002103A000F021F8012010BD09A1CD
:1019E000F8E7000053494752544D454D3A204F7592
:1019F00074206F662068656170206D656D6F727907
:101A0000000000003A2048656170206D656D6F72BE
:101A10007920636F727275707465640070B50546E5
:101A20000C460A2000E06D1C18F0A0FD35B12878A6
:101A30000028F8D102E0641C18F098FD14B1207859
:101A40000028F8D1BDE870400A2018F08FBD0000D2
:101A500080B584B0039048F2AC00C4F20300006883
:101A6000C005002836D4FFE7FFE748F2AC00C4F217
:101A700003000068C005002807D4FFE748F2A8006B
:101A8000C4F2030000680290EFE79DED020AB8EE91
:101A9000400A9FED151A80EE010A9FED141A20EE00
:101AA000010A8DED010A02F0D1F99DED011A21EE36
:101AB000000A41F65830C2F2000090ED001A30EEF4
:101AC000410A9FED0B2A20EE020A31EE000A80ED5A
:101AD000000AFFE748F20000C4F20300032127F0E8
:101AE000B0F904B080BD00BF00F07F4533335340F0
:101AF0000AD7A33C80B582B041F2B820C2F2000000
:101B00000078C007002804D1FFE700208DF8070007
:101B10000BE041F2B820C2F200000021017014F085
:101B2000B5FA01218DF80710FFE79DF8070002B014
:101B300080BD000080B582B041F2B820C2F2000042
:101B40000078C007002805D1FFE71CF0ABFF012893
:101B500004D0FFE700208DF8070012E040F2C0003B
:101B6000C2F200000A21017041F2B820C2F2000066
:101B700001210170009100F02BF800998DF80710F9
:101B8000FFE79DF8070002B080BD000080B582B07D
:101B900041F2E440C2F200000078C007002804D1FE
:101BA000FFE700208DF807000EE041F2E440C2F2AA
:101BB000000000210170FFF79DFF009014F066FA0D
:101BC00001218DF80710FFE79DF8070002B080BDE6
:101BD00080B5A2B041F2E440C2F200000078C00734
:101BE000002805D1FFE71CF077FF012804D0FFE7AC
:101BF00000208DF887000FE141F2E440C2F20000BE
:101C0000012101701C911CF039FF8DED1D0ACDEDF5
:101C10001E0A8DED1F1ACDED201A9DED1D0ADDED7A
:101C20001E0A9DED1F1ADDED201A15F007F845F686
:101C3000DC70C2F2000080ED000A42F68060C2F261
:101C400000000021017043F27450C2F200000170E4
:101C500008461C9A1B91114602F042FA02201B9979
:101C60001A9008461A998DED190A02F039FA0320E4
:101C70001B991890084618998DED170A02F030FA52
:101C800004201B991690084616998DED150A02F04E
:101C900027FA43F2E030C2F2000014909DED191AC9
:101CA0008DED130AB0EE410ADDED170A9DED151A10
:101CB000DDED131A17F046F91C981C9902F010FA82
:101CC0001C981A998DED120A02F00AFA1C981899BC
:101CD0008DED110A02F004FA1C9816998DED100A88
:101CE00002F0FEF914983C309DED121A8DED0F0AAA
:101CF000B0EE410ADDED110A9DED101ADDED0F1A6F
:101D000017F020F91A981C9902F0EAF91A981A9912
:101D10008DED0E0A02F0E4F91A9818998DED0D0A6E
:101D200002F0DEF91A9816998DED0C0A02F0D8F936
:101D3000149878309DED0E1A8DED0B0AB0EE410A25
:101D4000DDED0D0A9DED0C1ADDED0B1A17F0FAF81A
:101D500002F08CF91B988DED0A0A02F0F3F941F2BA
:101D60002C50C2F200009FED2E1AB2EE042A9FED15
:101D70002D3A9FED2D4A09909DED0A5A8DED080AE6
:101D8000B0EE450ADDED080A8DED071AF0EE421AB5
:101D90008DED062AB0EE432AF0EE442A8DED053A89
:101DA0008DED044A1EF08AFD02F060F91C988DED5D
:101DB000030A02F0C7F909984C309DED031A8DED26
:101DC000020AB0EE410ADDED020A9DED071ADDEDD3
:101DD000061A9DED052ADDED042A1EF06FFD1A9806
:101DE00002F0B0F9099898309FED101A9FED102A73
:101DF0008DED010AB0EE410ADDED010A9DED071AF5
:101E0000DDED061A8DED002ADDED002A1EF056FDEF
:101E10001C988DF88700FFE79DF8870022B080BDF1
:101E20003333333F0000FA4300409C450AD7A33BBD
:101E30000000484345F6D470C2F2000090ED000A5D
:101E40007047000045F6D870C2F2000090ED000A1D
:101E50007047000080B586B08DED040ACDED030A11
:101E60009DED040A20EE000A9DED031A21EE011AF1
:101E700030EE010A25F0ACFB8DED020A9DED020A61
:101E80009FED231AB4EE410AF1EE10FA19DDFFE7D7
:101E90009DED020A9FED1E1A81EE000A8DED010AEA
:101EA0009DED010A9DED041A21EE000A8DED040A54
:101EB0009DED010A9DED031A21EE000A8DED030A46
:101EC000FFE741F2E440C2F200000078C0070028BA
:101ED00004D1FFE700208DF8170015E0049845F6BF
:101EE000D871C2F200010860039845F6D471C2F2BD
:101EF0000001086042F68060C2F20000002101701B
:101F000001208DF81700FFE79DF8170006B080BD8F
:101F1000CDCC4C3F82B08DED000A41F2E440C2F2DC
:101F200000000078C007002804D1FFE700208DF8EA
:101F300007000EE0009845F6C871C2F20001886003
:101F400043F27450C2F20000012101708DF80710B5
:101F5000FFE79DF8070002B07047000080B588B029
:101F60008DED060A41F2E440C2F200000078C0079D
:101F7000002804D1FFE700208DF81F003EE01CF090
:101F80007DFD8DED010ACDED020A8DED031ACDED3B
:101F9000041A9DED010ADDED020A9DED031ADDED47
:101FA000041A14F04BFE8DED050A43F27450C2F290
:101FB0000000007800280DD0FFE7059843F2E031DB
:101FC000C2F20001C86743F27450C2F2000000215F
:101FD0000170FFE743F2E030C2F2000090ED1F0A0B
:101FE0009DED061A30EE010A45F6DC70C2F20000E3
:101FF00080ED000A01208DF81F00FFE79DF81F000B
:1020000008B080BD82B08DED000A41F2E440C2F21A
:1020100000000078C007002804D1FFE700208DF8F9
:10202000070009E0009846F27821C2F2000108603A
:1020300001208DF80700FFE79DF8070002B0704708
:1020400081B041F2E440C2F200000078C0070028ED
:1020500004D1FFE700208DF8030012E043F2745032
:10206000C2F200000078012807D1FFE743F2745064
:10207000C2F2000002210170FFE701208DF8030089
:10208000FFE79DF8030001B0704700002DE9F04F15
:1020900081B02DED108B84B0002005F083F84178DD
:1020A00081B1817871B190F8221008290AD80122F3
:1020B00002FA01F111F4B47F04D090F82300002853
:1020C00000F09980012005F06DF8417881B18178A8
:1020D00071B190F8221008290AD8012202FA01F100
:1020E00011F4B47F04D090F82300002800F085801C
:1020F000022005F057F8417879B1817869B190F8FC
:102100002210082909D8012202FA01F111F4B47F42
:1021100003D090F82300002871D0032005F042F886
:10212000417879B1817869B190F82210082909D8ED
:10213000012202FA01F111F4B47F03D090F82300D8
:1021400000285ED0042005F02DF8417879B181781F
:1021500069B190F82210082909D8012202FA01F188
:1021600011F4B47F03D090F8230000284BD0052051
:1021700005F018F8417871B1817861B190F82210BA
:10218000082908D8012202FA01F111F4B47F02D023
:1021900090F82300C8B3062005F004F8417871B127
:1021A000817861B190F82210082908D8012202FA3A
:1021B00001F111F4B47F02D090F8230038B3072066
:1021C00004F0F0FF417871B1817861B190F822108C
:1021D000082908D8012202FA01F111F4B47F02D0D3
:1021E00090F82300D0B140F6F0200021C2F20000A8
:1021F000416100F028BC002011E001200FE0022026
:102200000DE003200BE0042009E0052007E0062094
:1022100005E000BF000000006F12833A0720C0B243
:1022200004F0C0FF40F67041C768C2F20001D1E976
:1022300000325740024652F8086F73403B4303D0C8
:102240000378002B01F06C8140F6703040F6F022EC
:102250000021C2F20002C2F2000092ED040AC0E9BD
:102260000611506940F6F0240130C2F200046061AA
:102270001DF046FEB0EE408A94ED040AB0EE609A7E
:10228000B0EE41AAB0EE61BA1DF05AFD40F67035CD
:1022900045F6B064B0EE414AB0EE402A1FED23CAC5
:1022A000B0EE603A0420C2F20004C2F2000594EDE0
:1022B000016A95ED061A94ED050A94ED027AD4EDC3
:1022C000030AD4ED041A31EE465A94ED091A20702F
:1022D00065EE002AB0EE4C5AF4EEC12AF1EE10FA87
:1022E0000EDC94ED0A1AB0EE4C5AB1EE411AF4EE3F
:1022F000C12AF1EE10FAA4BFB0EE405AB0EE621A55
:10230000D4ED063AD4ED0B4A67EE457A31EE47DA62
:1023100060EEC56A61EE852A20EE850A67EE055AF1
:1023200037EEE05A36EEE11AF0EE4C6A63EE8D7A43
:10233000F4EEE47AF1EE10FA0EDCD4ED0C4AF0EE95
:102340004C6AF1EE644AF4EEE47AF1EE10FAA4BFBE
:10235000F0EE636AF0EE674A74EEE53AD4ED074AB0
:1023600015EE260AD4ED0D5A51EE262AF0EE4C6AEF
:1023700033EEE05A70EE613A24EE851AB4EEE51AB7
:10238000F1EE10FA0EDC94ED0E5AF0EE4C6AF1EE1E
:10239000455AB4EEE51AF1EE10FAA4BFF0EE415A38
:1023A000F0EE646A70EE254AD4ED085A43EEA62A90
:1023B00094ED100AD5ED076A1FED69DA94ED111A54
:1023C00094ED125A042074EEE13AD4ED184A45EE29
:1023D000A32AD4ED143A76EEC05A07EE0D6A00EE49
:1023E0008D7A41EE8D0A42EE8D1AD4ED132A84F8CF
:1023F0003C0084ED016A84ED027AC4ED030AF0EE3C
:102400004C0A65EEA35AC4ED041AF4EEE45AF1EE58
:1024100010FA0EDC94ED196AF0EE4C0AF1EE464A21
:10242000F4EEE45AF1EE10FAA4BFF0EE630AF0EE17
:10243000654AD4ED156A74EEC17AD4ED1A3A65EEA8
:10244000601A61EE605A22EEA06A25EE207A61EEF3
:10245000204A71EEE20A75EEC51AF0EE4C5A66EEAD
:10246000A77AF4EEE37AF1EE10FA0EDCD4ED1B3A23
:10247000F0EE4C5AF1EE633AF4EEE37AF1EE10FA34
:10248000A4BFF0EE665AF0EE673A73EEE46AD4ED5C
:10249000163A11EEA57AD4ED1C4A10EEA56AF0EEBC
:1024A0004C5A76EEC51A77EE620A63EEA11AF4EE84
:1024B000E41AF1EE10FA0EDCD4ED1D4AF0EE4C5A9F
:1024C000F1EE644AF4EEE41AF1EE10FAA4BFF0EE75
:1024D000614AF0EE635A37EE247AD4ED171A00EE13
:1024E000A56A01EE0D0A05EE0D1A02EE8D5AF0EE08
:1024F000490A37EE627A84ED100A84ED111A84EDF0
:10250000125AB0EE480AB0EE4A1A01EE876AF0EEAF
:102510004B1A46EE0D2AC4ED132AF0EE432AB0EE14
:10252000443A14F0E3FE44F24406B0EE401A0420AC
:10253000C2F2000696ED014A96ED052A96ED025A82
:1025400096ED036A96ED047A30EE443A96ED090A68
:10255000307063EE021AB0EE4C3AF4EEC01AF1EEAF
:1025600010FA0EDC96ED0A0AB0EE4C3AB1EE400AD3
:10257000F4EEC01AF1EE10FAA4BFB0EE423AB0EE9B
:10258000610AD6ED062A70EE456AD6ED0B3A26EEC4
:10259000432A65EE435A67EE031A26EE030A65EEF8
:1025A000034A35EEC63A32EE472AF0EE4C5A62EE56
:1025B000A66AF4EEE36AF1EE10FA0EDCD6ED0C3A00
:1025C000F0EE4C5AF1EE633AF4EEE36AF1EE10FAF3
:1025D000A4BFF0EE625AF0EE663A73EEE42AD6ED4E
:1025E000073A13EE250AD6ED0D4A52EE251AF0EE03
:1025F0004C5A32EEC63A70EE472A23EE832AB4EEE6
:10260000E42AF1EE10FA0EDC96ED0E3AF0EE4C5A9A
:10261000F1EE434AB4EEE42AF1EE10FAA4BFF0EE74
:10262000424AF0EE635A70EE243AD6ED084A42EE82
:10263000A51A96ED100A05EE0D4A06EE0D5A96ED16
:10264000112A96ED123A042007EE0D6A73EEC72A9E
:10265000D6ED183A44EEA21AD6ED142A70EEC04A0E
:1026600001EE8D7AD6ED131A86F83C0086ED014A0C
:1026700086ED025A86ED036AB0EE4C6A64EEA24A19
:1026800086ED047AF4EEE34AF1EE10FA0EDC96EDF4
:10269000194AB0EE4C6AF1EE443AF4EEE34AF1EE38
:1026A00010FAA4BFB0EE626AF0EE643AD6ED154AB5
:1026B00073EEC26AD6ED1A2A23EE467A62EE465AC5
:1026C00021EE864A23EE065A62EE063A37EE616A3A
:1026D00035EEC37AF0EE4C5A64EEA66AF4EEE26A86
:1026E000F1EE10FA0EDCD6ED1B2AF0EE4C5AF1EEAC
:1026F000622AF4EEE26AF1EE10FAA4BFF0EE645A38
:10270000F0EE662A72EEE34AD6ED162A17EE255A47
:10271000D6ED1C3A16EE254A34EEC37A35EE616AE0
:10272000F0EE4C4A22EE877AB4EEE37AF1EE10FA3C
:102730000EDCD6ED1D3AF0EE4C4AF1EE633AB4EE03
:10274000E37AF1EE10FAA4BFF0EE473AF0EE624AF7
:1027500035EE235A96ED177A06EE244A02EE0D0A5C
:1027600003EE0D2A01EE8D3A86ED100A35EE615A20
:10277000B0EE600AF0EE410A86ED112A86ED123ABB
:1027800007EE054A44EE0D1AC6ED131A2AF06EF94B
:10279000D5ED068AB0EE409A2AF05AFBB0EE40AA78
:1027A000D5ED079AB0EE490A2BF0BAFDB0EE40BA6B
:1027B00095ED06EAB0EE490A2BF0B2FDB0EE408A84
:1027C00095ED07FA40F6D075B0EE490A29EE8BBABE
:1027D000C2F200052AF03CFB95ED014A08EE8ABAE8
:1027E00095ED052A95ED091A95ED025A95ED036AC6
:1027F00095ED047A042028703BEE443A63EE020A19
:10280000B0EE4C3AF4EEC10AF1EE10FA0EDC95EDA2
:102810000A1AB0EE4C3AB1EE411AF4EEC10AF1EEEA
:1028200010FAA4BFB0EE423AB0EE601AD5ED063A07
:1028300071EE455AD5ED0B1A26EE432A65EE434A52
:102840006FEE000A27EE030A26EE031A65EE032A4E
:1028500034EEC63A32EE472AF0EE4C4A63EEA55A01
:10286000F4EEE15AF1EE10FA0EDCD5ED0C1AF0EEB2
:102870004C4AF1EE611AF4EEE15AF1EE10FAA4BFFF
:10288000F0EE634AF0EE651A71EEE21AD5ED072A12
:1028900013EE241AD5ED0D3A12EE240A4EEE480A34
:1028A000F0EE4C4A31EEC63A71EE471A22EE832A18
:1028B000B4EEE32AF1EE10FA0EDC95ED0E3AF0EEEE
:1028C0004C4AF1EE433AB4EEE32AF1EE10FAA4BF1B
:1028D000F0EE423AF0EE624A71EE232AD5ED083A64
:1028E00095ED101A01EEA40A05EE0D4A06EE0D5AFA
:1028F00007EE0D6A95ED112A95ED123A042072EE5D
:10290000C71AD5ED142A03EEA10AD5ED131A70EEFD
:10291000C10A00EE0D7A95ED180A60EEA20A85F85C
:102920003C0085ED014A85ED025AB0EE4C5A85ED2A
:10293000036A85ED047AF4EEC00AF1EE10FA0EDCBB
:1029400095ED190AB0EE4C5AB1EE400AF4EEC00A09
:10295000F1EE10FAA4BFB0EE625AB0EE600A95ED47
:10296000157A70EE424AD5ED1A0A23EE456A62EEF8
:10297000453A21EE850A23EE054A62EE052A36EE37
:10298000615A33EEC36AF0EE4C3A67EE244AF4EE35
:10299000E04AF1EE10FA0EDCD5ED1B0AF0EE4C3AEF
:1029A000F1EE600AF4EEE04AF1EE10FAA4BFF0EEA8
:1029B000473AF0EE640A70EEE22AD5ED160A16EEFA
:1029C000234A95ED1C7A15EE230A32EEC36A34EEE3
:1029D000615A20EE866AB4EEC76AF1EE10FA0CDC9A
:1029E00095ED1D7AB1EE477AB4EEC76AF1EE10FAB2
:1029F000A4BFB0EE467AB0EE60CA34EE074A95ED59
:102A0000176A05EE0C0A02EE0D1A03EE0D2A01EE0E
:102A10008D3AD4ED010A34EE614A85ED101A85ED48
:102A2000112A85ED123A06EE040A40EE0D1A94EDD5
:102A3000100AC5ED131A2AF019F8D6ED010A96ED21
:102A4000100A2AF013F8002041F2F87A40F6F02537
:102A5000FEEE009AF6EE008AF7EE00AAB2EE048AC5
:102A60004FF000084FF000098DF80E00ADF80C0093
:102A700040F66050C2F2000AC2F20005C2F2000045
:102A800000F1500440F63060C2F20000061D42F230
:102A90004710C0F203000078009000BF5FFA89F091
:102AA00004F064FB83460078002800F0E58144F6DA
:102AB0000C4044F61441029444F67067C2F20000E0
:102AC000C2F20001C2F20007007800284FF6FF7042
:102AD00018BF01200988A1EB0002134618BF9633E6
:102AE0008842314698BF1346D5E91202D5E9146CE5
:102AF0003C7800EB830044F67863002C4FF6FF74BB
:102B0000C2F200031B8818BF0124A3EB04073D4653
:102B100018BF96359C4245F2DC0398BF3D4645F20E
:102B2000D407C2F20003C2F200071B8802EB850241
:102B30003F78002F4FF6FF7718BF0127A3EB07045C
:102B4000254618BF96359F4245F23837C2F2000736
:102B500098BF25463F7806EB850345F24036C2F222
:102B60000006002F4FF6FF7718BF01273688A6EB27
:102B70000704254618BF9635B74211ED010A9BEDB3
:102B8000093A91ED001A9BED0A4A019191ED012A53
:102B90009BED0B5A98BF254690ED00FA009893EDF7
:102BA00000DA92ED00EA0CEB850135EE429A34EE44
:102BB00041AA33EE40BA91ED00CA484521D001F058
:102BC000B1F9B0EE603AB0EE615AB0EE414AB0EE03
:102BD000402AB0EE4F0AF0EE4E0AB0EE4D1AF0EE7B
:102BE0004C1AF0EE432AB0EE443AF0EE453A13F0B8
:102BF00087FEB0EE40FAB0EE60EAB0EE41DAB0EE39
:102C000061CA029CB0EE4F0AF0EE4E0AB0EE4D1AC9
:102C1000F0EE4C1AB0EE4B2AF0EE4A2AB0EE493AEA
:102C200014F064FBD4E90001B0EE40BAB0EE60AA43
:102C3000B0EE419A16F012FF002800F02981D4E985
:102C40000023DBE9020140F6F025019EC2F20005F7
:102C50004B4042401A4300F04B829AED021A9AED23
:102C6000010A9AED063A9AED074A9AED032A9AED7F
:102C7000085A9AED046A9AED097AC4E9000103A89A
:102C8000012100F80910042041F6AC017BEE400A56
:102C9000F0EE414A7AEE431AF0EE446A62EE293AC7
:102CA00065EE295A61EE292AC2F2000150EEA84AC7
:102CB00051EEA86A64EE290A72EEC21A44EEA82AFE
:102CC00073EEC67A70EEC54A46EEA80A41EEA83AFF
:102CD00035EEC7AA67EEA81A44EEA85A46EE681A5F
:102CE0006AEE284A72EEC22A70EEC50A73EEC66A10
:102CF00042EEA83A47EE684A46EEA81A75EEC72A91
:102D000040EEA85ADBED040A73EEC63A8AF80000DA
:102D10008AF8140042EEA84A43EEA81A00EE810A8F
:102D200000EE821A00EE862A00EE843A00EE854A12
:102D300000EE875A00EEA16A8AED010A75EEC72AF5
:102D40008AED021A8AED032A8AED046A8AED063AB0
:102D50008AED074A8AED085A42EEA84A00EEA47AA4
:102D60008AED097A8AF8280011F808009AED0C1A01
:102D70009AED0B0A9AED0D2A9AED0E3A002839EEDB
:102D8000404AB0EE417A22EE296A21EE295A00EE3D
:102D9000810A00EE821A14EE287A8AED0B0A35EECB
:102DA000424A76EE431A8AED0C1A07EE285A04EED0
:102DB000286A21EEA84A35EE425A36EE437A00EEF2
:102DC000832A03EE684A05EE286A8AED0D2A07EE8B
:102DD000284A36EE435A05EE284A00EE843A8AED38
:102DE0000E3A9BED090A00F0B28001EB080090ED6D
:102DF000071A90ED083A90ED014A90ED025AD0ED95
:102E0000090A90ED036AD0ED0A1A90ED047A31EECA
:102E1000012A30EE022A33EE022A90ED0B3A24EE1C
:102E2000022A90ED0C4A00EEC52A01EEC62A90ED6A
:102E30000D6A33EE035AD0ED061A32EE055A34EE1F
:102E4000054A90ED055A27EE044A90ED0E7A80ED82
:102E5000070A80ED081A80ED092AC0ED0A0A80ED04
:102E60000B2A80ED0C3A06EE454A07EE614A80EDEA
:102E70000D4A80ED0E6A7CE0204616F0FDFD37E13C
:102E8000000000000BD7233C0AD7A33CCDCC4C3D1F
:102E9000002041F6AC04F0EE480ACAE90200CAF884
:102EA00010008AED01BACAE90700CAF824008AEDC9
:102EB00006AACAE90C00CAF838008AED0B9AC2F2D9
:102EC0000004DBF8240004EB0806C6E90700C6E9A5
:102ED0000900C6E90B00C6E90D00DBF82800C6E9C9
:102EE0001600C6E91800C6E91A00C6E91C00DBF89E
:102EF0002C00C6E92500C6E92700C6E92900C6E975
:102F00002B0030469BED040A8AEE800A03F098FA03
:102F100014F80800371D86F83C008ECFD6E905541A
:102F200086F8780006F140008EC006F17C00C6E904
:102F300014548EC0C6E9235440F6F025029CDBE908
:102F40000201019EC2F20005C4E90001D0E001EBDC
:102F5000080080ED070A80ED080A80ED090A80ED7F
:102F60000A0A80ED0B0A80ED0C0A80ED0D0A80ED57
:102F70000E0A01EB08009BED0A0A90F83C100029AC
:102F800000F08F8090ED161A90ED173A90ED104AF0
:102F900090ED115AD0ED180A90ED126AD0ED191A81
:102FA00090ED137A31EE012A30EE022A33EE022A36
:102FB00090ED1A3A24EE022A90ED1B4A00EEC52A43
:102FC00001EEC62A90ED1C6A33EE035AD0ED151AB5
:102FD00032EE055A34EE054A90ED145A27EE044AB3
:102FE00090ED1D7A80ED160A80ED171A80ED182AF3
:102FF000C0ED190A80ED1A2A80ED1B3A06EE454A0B
:1030000007EE614A80ED1C4A80ED1D6A90F8781049
:103010009BED0B0A00295AD090ED251A90ED263A27
:1030200090ED1F4A90ED205AD0ED270A90ED216ACD
:10303000D0ED281A90ED227A31EE012A30EE022AE4
:1030400033EE022A90ED293A24EE022A90ED2A4A24
:1030500000EEC52A01EEC62A90ED2B6A33EE035A24
:10306000D0ED241A32EE055A34EE054A90ED235A7B
:1030700027EE044A90ED2C7A80ED250A80ED261A81
:1030800080ED272AC0ED280A80ED292A80ED2A3A12
:1030900006EE454A07EE614A80ED2B4A80ED2C6A28
:1030A00026E080ED160A80ED170A80ED180A80ED03
:1030B000190A80ED1A0A80ED1B0A80ED1C0A80EDCA
:1030C0001D0A90F878109BED0B0A0029A4D180ED21
:1030D000250A80ED260A80ED270A80ED280A80ED7A
:1030E000290A80ED2A0A80ED2B0A80ED2C0A00BF08
:1030F00008F1B4080C3608340AF13C0A09F1010958
:10310000B8F5077F7FF4CAACE888B0F5FA6F36D817
:10311000009841F2F87140F29004C2F20001C2F24C
:103120000004C0EB001001EB800005F13C01D1EC84
:10313000030A94ED040A90ED012AD0ED062A90EDE1
:103140000B3A14F0D3F829F091FC1FEDB32A05F1E6
:103150003C00B0EE403A94ED040AD0EC030AF0EEE5
:10316000422A14F057FA05F13C0084ED040AC0EC41
:10317000030A04B0BDEC108B01B0BDE8F08F002055
:10318000002403F0F3FF0078002878D041F6AC006B
:10319000C2F2000090ED0DAA90ED1C9A90ED2B8AE2
:1031A000687800286DD040F6703440F630665FEDE8
:1031B000CB2A4FF6FF77C2F20004C2F2000696ED6A
:1031C000011A94ED0F4A96ED000A94ED0E3A96ED31
:1031D000022A94ED105A74EE410A79EE411A33EE48
:1031E000407A3AEE406A35EE425A38EE424A31EEC3
:1031F000E01A36EE470A34EE452A21EE013A00EE97
:10320000003A02EE023AB4EEE23AF1EE10FA4ADD8A
:1032100060EEA00A61EEA11A47EE070A46EE061A12
:1032200045EE050A44EE041A31EEE04A5FEDEA1A73
:1032300024EE284A84EE033A61EE030A20EE030AE4
:1032400022EE031A24F018FF1FEDF02A96ED003A43
:1032500096ED014A96ED025A84ED0EAA84ED0F9A7E
:1032600084ED108A00EE023A00EE824A01EE025A24
:1032700086ED003A86ED014A86ED025A13E06C7045
:103280000BE040F67030C2F2000080ED0EAA80ED37
:103290000F9A80ED108A0120687040F630664FF674
:1032A000FF77C2F20006012003F060FF00780028DB
:1032B00072D041F6AC00C2F2000090ED3AAA90ED57
:1032C000499A90ED588AA878012867D140F6703461
:1032D00096ED041A96ED030A96ED052ADFEDEA2A2B
:1032E000C2F2000494ED124A94ED113A94ED135A8F
:1032F00079EE411A3AEE406A74EE410A33EE407AB2
:1033000035EE425A38EE424A31EEE01A36EE470ABE
:1033100034EE452A21EE013A00EE003A02EE023A7E
:10332000B4EEE23AF1EE10FA44DD60EEA00A61EE8E
:10333000A11A47EE070A46EE061A45EE050A44EEC4
:10334000041A31EEE04ADFEDD11A24EE284A84EE69
:10335000033A61EE030A20EE030A22EE031A24F078
:103360008BFE9FEDCB2A96ED033A96ED044A96ED3F
:10337000055A84ED11AA84ED129A84ED138A00EEA9
:10338000023A00EE824A01EE025A86ED033A86EDD9
:10339000044A86ED055A0DE000200AE040F6703040
:1033A000C2F2000080ED11AA80ED129A80ED138A1E
:1033B0000120A870022003F0D9FE0078002872D006
:1033C00041F6AC00C2F2000090ED67AA90ED769A4B
:1033D00090ED858AE878012867D140F6703496ED43
:1033E000071A96ED060A96ED082ADFEDA72AC2F223
:1033F000000494ED154A94ED143A94ED165A79EEC2
:10340000411A3AEE406A74EE410A33EE407A35EEE4
:10341000425A38EE424A31EEE01A36EE470A34EEAE
:10342000452A21EE013A00EE003A02EE023AB4EEED
:10343000E23AF1EE10FA44DD60EEA00A61EEA11A64
:1034400047EE070A46EE061A45EE050A44EE041A50
:1034500031EEE04ADFED8D1A24EE284A84EE033A7D
:1034600061EE030A20EE030A22EE031A24F004FEA2
:103470009FED872A96ED063A96ED074A96ED085A93
:1034800084ED14AA84ED159A84ED168A00EE023AB2
:1034900000EE824A01EE025A86ED063A86ED074AB0
:1034A00086ED085A0DE000200AE040F67030C2F2C6
:1034B000000080ED14AA80ED159A80ED168A012097
:1034C000E8700020002503F051FE04460078E0B1CA
:1034D0009DF80C0041F2F875C2F20005002800F0DA
:1034E000EF8095ED061A95ED010A95ED0B2A21EE78
:1034F000018A00EE008A02EE028AB5EEC08AF1EE81
:1035000010FA7DDA9FED630A87E040F67030C2F270
:1035100000000562C56241F2F875C2F20005CFE015
:1035200040F6F0239FED5C0A9FED5C2AC2F2000397
:1035300093ED051AB8EEC11A21EE003AB4EEC23A84
:10354000F1EE10FA08DCB4EEC03AB0EE432AF1EE28
:1035500010FAB8BFB0EE402A90ED063AB7EE084A2E
:10356000B6EE005A93ED040A23EE046A9FED4C4A2E
:10357000B7EE003A02EE056A83EE023A36EE405AA2
:10358000B4EEC45AF1EE10FA08DC9FED464AB4EEF0
:10359000C45AF1EE10FAA8BFB0EE454A9FED425A68
:1035A00040F67037C2F2000722EE052A02EE040A46
:1035B00091ED112A91ED124A83ED040A90ED135A10
:1035C00090ED146A35EE422A36EE444A23EE022A82
:1035D00023EE043A22EE012A23EE011A87ED062A91
:1035E00087ED071AD0E91376456D00205861C1E9CF
:1035F0001176CD64D2E90023C1E90023FEF732BE83
:10360000B0EE480A2AF091FFB4EEC00AF1EE10FACB
:1036100003D7B0EE480A2AF088FF40F670309FEDDD
:10362000232AC2F2000090ED081A30EE020AB4EE2E
:10363000C10AF1EE10FA10DD80ED080A9FED1C2A98
:1036400090ED0B1A94ED043A30EE410A23EE022A73
:1036500002EE001A80ED0B1A32E09FED152A94ED70
:10366000043A30EE414A23EE022A90ED0B3A04EE82
:10367000021AB4EEC30A80ED081AF1EE10FA19DA54
:1036800080ED0B0A1CE000BF0BD7233C0AD7A33CFC
:10369000CDCC4C3D000000006F12833A6666663F59
:1036A000CDCC4C3ECDCC4CBECDCCCC3D9A9919BFA7
:1036B0009A99193F30EE430A00EE023A80ED0B3A38
:1036C000012003F053FD04460078B8B19DF80D00C9
:1036D000002864D095ED151A95ED100A95ED1A2A7B
:1036E00021EE018A00EE008A02EE028AB5EEC08A5F
:1036F000F1EE10FA0ADA1FED190A14E040F6703004
:103700000021C2F200004162016348E0B0EE480AC5
:103710002AF00BFFB4EEC00AF1EE10FA03D7B0EEB8
:10372000480A2AF002FF40F670301FED202AC2F24C
:10373000000090ED091A30EE020AB4EEC10AF1EE73
:1037400010FA10DD80ED090A1FED272A90ED0C1A02
:1037500094ED043A30EE410A23EE022A02EE001AFA
:1037600080ED0C1A1BE01FED2E2A94ED043A30EE8A
:10377000414A23EE022A90ED0C3A04EE021AB4EE0E
:10378000C30A80ED091AF1EE10FA02DA80ED0C0A94
:1037900005E030EE430A00EE023A80ED0C3A0220DA
:1037A00003F0E4FC04460078B8B19DF80E00002850
:1037B00064D095ED241A95ED1F0A95ED292A21EE86
:1037C000018A00EE008A02EE028AB5EEC08AF1EEAE
:1037D00010FA0ADA1FED4B0A18E040F670300021AB
:1037E000C2F200008162416348E0B0EE480A2AF06C
:1037F0009CFEB4EEC00AF1EE10FA03D7B0EE480A10
:103800002AF093FE1FED571A30EE010A40F6703091
:10381000C2F2000090ED0A1AB4EEC10AF1EE10FAFD
:1038200010DD80ED0A0A9FEDE62A90ED0D1A94ED69
:10383000043A30EE410A23EE022A02EE001A80ED2D
:103840000D1A1BE09FEDDE2A94ED043A30EE414A5A
:1038500023EE022A90ED0D3A04EE021AB4EEC30AEA
:1038600080ED0A1AF1EE10FA02DA80ED0D0A05E099
:1038700030EE430A00EE023A80ED0D3A002003F0EC
:1038800075FC007818B39DF80C0000B340F670305A
:103890009FEDCC1AC2F2000090ED0B0AB4EEC10A03
:1038A000F1EE10FA13DD90ED081A9FEDC72AB4EE81
:1038B000C21AF1EE10FA0ADA31EE400A9FEDC31A8D
:1038C000B4EEC10AF1EE10FA01DA002056E0012050
:1038D00003F04CFC007818B39DF80D0000B340F6DF
:1038E00070309FEDB81AC2F2000090ED0C0AB4EEF1
:1038F000C10AF1EE10FA13DD90ED091A9FEDB22A1C
:10390000B4EEC21AF1EE10FA0ADA31EE400A9FED77
:10391000AF1AB4EEC10AF1EE10FA01DA01202DE07F
:10392000022003F023FC00789FEDA90A60B39DF804
:103930000E0048B340F670329FEDA22AFF204FF0F0
:10394000FF380021C2F2000292ED0D1AB4EEC21A45
:10395000F1EE10FA1CDD92ED0A2A9FED9B3AB4EECF
:10396000C32AF1EE10FA13DA32EE411A9FED972ACC
:10397000B4EEC21AF1EE10FA0ADA02209FED8D0AB7
:103980005FFA80F8012103E0FF204FF0FF380021AB
:1039900040F2900BC2F2000B9BED011A31EE001ABF
:1039A000B3EE0E0AB4EEC01A8BED011AF1EE10FA66
:1039B00006DCB5EEC01AF1EE10FA03DA9FED7F0ACD
:1039C0008BED010A002900F0EF8003A911F808101F
:1039D000002900F0E98003F0C9FB45F2383144F6D4
:1039E0000C424FF6FF739FED74DAC2F20001C2F28F
:1039F000000291F800E04FF6FF71BEF1000F18BF12
:103A00000121147844F67062C2F20002167845F281
:103A1000D402C2F2000292F800904FF6FF72B9F1A0
:103A2000000F18BF0123002E18BF0122002C18BF61
:103A3000012790ED040A009820EE0DCA804577D04A
:103A400045F2403040F6F02C002CC2F20000C2F2E9
:103A5000000C0088029045F2DC00C2F200000088F1
:103A6000019044F67860C2F20000B0F800A044F67D
:103A70001440C2F200000088A0EB07052C4618BFD6
:103A8000963487420CF1480798BF2C46A1CF002EF0
:103A9000DCF854C000EB8400AAEB02040097264631
:103AA00018BF9636524598BF2646019FB9F1000FC0
:103AB00005EB8602A7EB0304254618BF9635BB42EB
:103AC00098BF2546009B029FBEF1000F03EB8503C4
:103AD000A7EB01052C4618BF9634B94298BF2C4677
:103AE00041F2F87593ED009A92ED00AA90ED00BABC
:103AF0000CEB8401C2F2000591ED008A00F012FA8D
:103B0000B0EE603AB0EE615AB0EE414AB0EE402AF3
:103B1000B0EE4B0AF0EE4A0AB0EE491AF0EE481A3F
:103B2000F0EE432AB0EE443AF0EE453A12F0E8FEE9
:103B300040F6F024C8EB0810C2F2000405EB800048
:103B400004F13C01D1EC030A9BED040A90ED012A3B
:103B5000D0ED062A90ED0B3A13F0C8FB28F086FF53
:103B60002CEE0D3A2CEE000AB4EEC30AF1EE10FA78
:103B700008DCB1EE433AB4EEC30AF1EE10FAA8BF86
:103B8000B0EE403A9FED0D2A04F13C00D0EC030A60
:103B90009BED040AF0EE422A13F03CFD04F13C00D8
:103BA0008BED040AC0EC030A04B0BDEC108B01B02D
:103BB000BDE8F08F6F12833ACDCC4C3E0000000080
:103BC0009A99193F9A9999BE9A99993E0AD7233C96
:103BD0006F1203BA0000000080B590B00E908DED1A
:103BE0000D0ACDED0C0A8DED0B1A40F6DB70C4F218
:103BF00049000A900C982CF077FD41EC100B9FEDDA
:103C0000501B53EC112B51EC100B2CF0B4FD002881
:103C100021D1FFE70D982CF067FD41EC100B0C98BB
:103C20008DED020B2CF060FD41EC100B9FED461B5F
:103C300053EC112B51EC100B2CF060FA41EC100BF3
:103C400053EC102B9DED020B51EC100B2CF085FD6D
:103C5000002804D1FFE700208DF83F006AE09DEDC9
:103C60000B0A9FED3B1A20EE010A8DED011A29F097
:103C7000EFF88DED090A9DED0D0A9DED0C1A80EE11
:103C8000010A8DED080A9DED080A9DED011A81EEED
:103C9000000A2AF067FC8DED070A9DED070A20EE69
:103CA000000A8DED060A9DED090A30EE000A9DED31
:103CB000071A20EE010AB7EE001A30EE010A9DED58
:103CC000062A30EE020A8DED050A9DED050A81EE09
:103CD000000A8DED040A9DED060A9DED042A20EEF2
:103CE000020A0E9880ED000A9DED060A30EE410AA8
:103CF00030EE000A9DED042A20EE020A0E9880EDB7
:103D0000010A9DED090A30EE000A9DED072A20EE1A
:103D1000020A31EE400A9DED061A30EE010A9DEDD1
:103D2000041A20EE010A0E9880ED020A01208DF897
:103D30003F00FFE79DF83F0010B080BD00BF00BF0F
:103D40002D431CEBE2361A3FCDCCCCCCCCCC004082
:103D5000DB0F494080B582B001468DF807009DF821
:103D60000700C007002809D0FFE749F20000C4F2AD
:103D700002004021012225F088FF08E049F20000FE
:103D8000C4F202004021002225F07FFFFFE702B0CD
:103D900080BD000085B002A902468DF80700002012
:103DA0000490039002909DF807000328009101DB26
:103DB000FFE710E09DF8070000EB800043F2785128
:103DC000C2F2000101EBC000816AC26A006B04907C
:103DD00003920291FFE7009890ED000AD0ED010AEE
:103DE00090ED021A05B0704785B002A902468DF821
:103DF000070000200490039002909DF8070003281C
:103E0000009101DBFFE710E09DF8070000EB800068
:103E100043F27851C2F2000101EBC000416B826BAA
:103E2000C06B049003920291FFE7009890ED000AA6
:103E3000D0ED010A90ED021A05B0704743F27850B8
:103E4000C2F2000090EDCE0A7047000043F27850B5
:103E5000C2F2000090EDCF0A7047000081B0014629
:103E60008DF803009DF8030000EB800043F27852C8
:103E7000C2F2000202EB001000F5CC7001B07047F6
:103E800081B001468DF803009DF8030000EB80002F
:103E900043F27852C2F2000202EB001000F5C87043
:103EA00001B0704781B001468DF803009DF8030012
:103EB00000EB800043F27852C2F2000202EB0010E5
:103EC00000F5DC7001B0704785B002A902468DF89C
:103ED000070000200490039002909DF8070003283B
:103EE000009101DBFFE713E09DF8070000EB800085
:103EF00043F27851C2F2000101EBC000D0F8A010EB
:103F0000D0F8A420D0F8A800049003920291FFE713
:103F1000009890ED000AD0ED010A90ED021A05B06C
:103F20007047000084B043F27850C2F20000D0F82D
:103F3000D012D0F8D422D0F8D832D0F8DC020390D6
:103F40000293019200919DED000ADDED010A9DEDC5
:103F5000021ADDED031A04B07047000085B002A913
:103F600002468DF8070000200490039002909DF80F
:103F700007000328009101DBFFE713E09DF807002D
:103F800000EB800043F27851C2F2000101EBC00067
:103F9000D0F81811D0F81C21D0F820010490039219
:103FA0000291FFE7009890ED000AD0ED010A90ED34
:103FB000021A05B07047000085B002A902468DF8CC
:103FC000070000200490039002909DF8070003284A
:103FD000009101DBFFE713E09DF8070000EB800094
:103FE00043F27851C2F2000101EBC000D0F8241175
:103FF000D0F82821D0F82C01049003920291FFE719
:10400000009890ED000AD0ED010A90ED021A05B07B
:104010007047000043F27850C2F2000090F82E037F
:1040200000EE100AB8EEC00A9FED021A20EE010A57
:10403000704700BF0AD7233C43F27850C2F2000019
:1040400090F82D0300EE100AB8EEC00A9FED021A98
:1040500020EE010A704700BF0AD7233C43F2785094
:10406000C2F2000090F82C037047000043F2785031
:10407000C2F2000090EDCC0A7047000082B00A4600
:1040800003468DF803008DF802109DF80300032805
:1040900003DBFFE7002001901EE09DF802000028EE
:1040A00005D0FFE79DF80200052803DBFFE70020AD
:1040B000019011E09DF8030000EB80009DF80210D4
:1040C00001EB400043F27851C2F2000101EB8000A5
:1040D000D0F848030190FFE79DED010A02B0704758
:1040E00082B00A4603468DF803008DF802109DF851
:1040F0000300032803DBFFE7002001901EE09DF88A
:104100000200002805D0FFE79DF80200052803DB28
:10411000FFE70020019011E09DF8030000EB800014
:104120009DF8021001EB400043F27851C2F2000109
:1041300001EB8000D0F858030190FFE79DED010AE4
:1041400002B0704782B001468DF803009DF803006D
:10415000032803DBFFE7002001900DE09DF803003A
:1041600000EB800043F27851C2F2000101EBC00085
:10417000D0F848030190FFE79DED010A02B07047B7
:1041800043F27850C2F2000090F82003704700001C
:1041900082B001468DF803009DF80300032803DB7D
:1041A000FFE7002001900BE09DF8030043F27851F7
:1041B000C2F2000101EB8000D0F8F4070190FFE7A4
:1041C000019802B07047000084B003A9B0EE412A04
:1041D000B0EE603AB0EE404A024681ED001A41ED81
:1041E000010A01ED020A8DF803009DF8030003287F
:1041F00001DBFFE710E09DF8030000EB800043F2D5
:104200007851C2F2000101EBC0000199029A039BB0
:104210000363C2628162FFE704B0704784B003A900
:10422000B0EE412AB0EE603AB0EE404A024681ED6F
:10423000001A41ED010A01ED020A8DF803009DF814
:104240000300032801DBFFE710E09DF8030000EB0B
:10425000800043F27851C2F2000101EBC0000199E5
:10426000029A039BC36382634163FFE704B0704714
:1042700081B08DED000A43F27850C2F2000000993F
:10428000C0F8381301B0704781B08DED000A43F2D9
:104290007850C2F200000099C0F83C1301B070479A
:1042A00070B582B002468DF8070000919DF80700B6
:1042B00000EB800043F27851C2F2000101EB0010E4
:1042C00000990B68D1F804C0D1F808E0CC680D69FA
:1042D0004E69C0F8AC61C0F8A851C0F8A441C0F85C
:1042E000A0E1C0F89CC1C0F898318B69C969C0F8D9
:1042F000B411C0F8B03102B070BD000082B0024607
:104300008DF8070000919DF8070000EB800043F254
:104310007851C2F2000101EB001000990B68496866
:10432000C0F89411C0F8903102B0704770B582B0F7
:1043300002468DF8070000919DF8070000EB800011
:1043400043F27851C2F2000101EB001000990B68B2
:10435000D1F804C0D1F808E0CC680D694E69C0F806
:10436000CC61C0F8C851C0F8C441C0F8C0E1C0F881
:10437000BCC1C0F8B8318B69C969C0F8D411C0F8A4
:10438000D03102B070BD000084B003A9B0EE412A64
:10439000B0EE603AB0EE404A024681ED001A41EDBF
:1043A000010A01ED020A8DF803009DF803000328BD
:1043B00001DBFFE713E09DF8030000EB800043F210
:1043C0007851C2F2000101EBC0000199029A039BEF
:1043D000C0F8A830C0F8A420C0F8A010FFE704B0CF
:1043E0007047000084B003A9B0EE412AB0EE603AF5
:1043F000B0EE404A024681ED001A41ED010A01ED9E
:10440000020A8DF803009DF80300032801DBFFE793
:1044100013E09DF8030000EB800043F27851C2F2F4
:10442000000101EBC0000199029A039BC0F8B4306F
:10443000C0F8B020C0F8AC10FFE704B0704700002F
:1044400084B0B0EE612AB0EE413AB0EE604AB0EE10
:10445000405ACDED031A8DED021ACDED010A8DED16
:10446000000A43F27850C2F200000099019A029BC0
:10447000DDF80CC0C0F8DCC2C0F8D832C0F8D422D5
:10448000C0F8D01204B0704784B003A9B0EE412A3E
:10449000B0EE603AB0EE404A024681ED001A41EDBE
:1044A000010A01ED020A8DF803009DF803000328BC
:1044B00001DBFFE713E09DF8030000EB800043F20F
:1044C0007851C2F2000101EBC0000199029A039BEE
:1044D000C0F82031C0F81C21C0F81811FFE704B063
:1044E0007047000084B003A9B0EE412AB0EE603AF4
:1044F000B0EE404A024681ED001A41ED010A01ED9D
:10450000020A8DF803009DF80300032801DBFFE792
:1045100013E09DF8030000EB800043F27851C2F2F3
:10452000000101EBC0000199029A039BC0F82C31F5
:10453000C0F82821C0F82411FFE704B0704700003C
:1045400081B08DED000A9DED000A9FED081A20EE66
:10455000010ABDEEC00A10EE100A43F27851C2F211
:10456000000181F82E0301B0704700BF0000C8426F
:1045700081B08DED000A9DED000A9FED081A20EE36
:10458000010ABDEEC00A10EE100A43F27851C2F2E1
:10459000000181F82D0301B0704700BF0000C84240
:1045A00081B001468DF803009DF8030043F2785274
:1045B000C2F2000282F82C0301B0704781B08DED89
:1045C000000A43F27850C2F200000099C0F830139C
:1045D00001B0704783B00A4603468DF80B008DED9D
:1045E000010A8DF803109DF80B00032801DBFFE79B
:1045F0001CE09DF80300002805D0FFE79DF80300AC
:10460000052801DBFFE711E09DF80B0000EB8000BF
:104610009DF8031001EB400043F27851C2F2000113
:1046200001EB80000199C0F84813FFE703B0704721
:1046300083B00A4603468DF80B008DED010A8DF814
:1046400003109DF80B00032801DBFFE71CE09DF839
:104650000300002805D0FFE79DF80300052801DBD3
:10466000FFE711E09DF80B0000EB80009DF80310C0
:1046700001EB400043F27851C2F2000101EB8000EF
:104680000199C0F85813FFE703B0704782B00146A4
:104690008DF807008DED000A9DF80700032801DB67
:1046A000FFE70DE09DF8070000EB800043F2785132
:1046B000C2F2000101EBC0000099C0F84813FFE707
:1046C00002B0704781B001468DF803009DF80300E9
:1046D00043F27852C2F2000282F8200301B0704720
:1046E00080B586B0B0EE412AB0EE603AB0EE404AF6
:1046F00001468DED041ACDED030A8DED020A8DF809
:1047000007009DF80700032804DBFFE700208DF871
:1047100017002CE09DF8070000EB80000A2101EB58
:104720004000ADF80400BDF8040043F27851C2F235
:10473000000101EB8002029BDDF80CC0DDF810E007
:1047400041F82030C2F808E0C2F804C0BDF8040007
:1047500001EB800180000C2200900846009924F0B3
:10476000C3FCB0FA80F040098DF81700FFE79DF810
:10477000170006B080BD000080B586B0B0EE412ABB
:10478000B0EE603AB0EE404A01468DED041ACDED30
:10479000030A8DED020A8DF807009DF80700032833
:1047A00004DBFFE700208DF817002CE09DF80700E0
:1047B00000EB80000D2101EB4000ADF80400BDF8D6
:1047C000040043F27851C2F2000101EB8002029B27
:1047D000DDF80CC0DDF810E041F82030C2F808E048
:1047E000C2F804C0BDF8040001EB800180000C2277
:1047F00000900846009924F077FCB0FA80F0400958
:104800008DF81700FFE79DF8170006B080BD000087
:1048100080B582B08DED010A43F27850C2F20000FB
:104820000199C0F8381300F54E704FF44E71042210
:1048300024F05AFCB0FA80F0400902B080BD0000BC
:1048400080B582B08DED010A43F27850C2F20000CB
:104850000199C0F83C1300F54F704FF44F710422DA
:1048600024F042FCB0FA80F0400902B080BD0000A4
:104870002DE9F04186B002468DF8170004919DF8AD
:10488000170000EB8000662101EB8000ADF80E0000
:10489000BDF80E0043F27851C2F2000101EB800333
:1048A000DDF810C0DCF810E0DCF81440DCF8005053
:1048B000DCF80460DCF80870DCF80C8041F820506B
:1048C0005C61C3F810E0C3F80C809F605E60DCF8A8
:1048D0001800DCF81CC0C3F81CC09861BDF80E00BD
:1048E00001EB80018000202302900846029901928A
:1048F0001A4624F0F9FBB0FA80F0400906B0BDE892
:10490000F081000080B586B002468DF81700049152
:104910009DF8170000EB8000642101EB8000ADF8EA
:104920000E00BDF80E0043F27851C2F2000101EB17
:104930008003DDF810C0DCF800E0DCF804C041F8CA
:1049400020E0C3F804C0BDF80E0001EB8001800038
:10495000082302900846029901921A4624F0C4FBEB
:10496000B0FA80F0400906B080BD00002DE9F041AA
:1049700086B002468DF8170004919DF8170000EBF1
:1049800080006E2101EB8000ADF80E00BDF80E0036
:1049900043F27851C2F2000101EB8003DDF810C050
:1049A000DCF810E0DCF81440DCF80050DCF80460BF
:1049B000DCF80870DCF80C8041F820505C61C3F82A
:1049C00010E0C3F80C809F605E60DCF81800DCF833
:1049D0001CC0C3F81CC09861BDF80E0001EB80013B
:1049E0008000202302900846029901921A4624F082
:1049F0007BFBB0FA80F0400906B0BDE8F081000012
:104A000080B586B0B0EE412AB0EE603AB0EE404AD2
:104A100001468DED041ACDED030A8DED020A8DF8E5
:104A200007009DF80700032804DBFFE700208DF84E
:104A300017002CE09DF8070000EB8000282101EB17
:104A40004000ADF80400BDF8040043F27851C2F212
:104A5000000101EB8002029BDDF80CC0DDF810E0E4
:104A600041F82030C2F808E0C2F804C0BDF80400E4
:104A700001EB800180000C2200900846009924F090
:104A800033FBB0FA80F040098DF81700FFE79DF87E
:104A9000170006B080BD000080B588B0B0EE612A76
:104AA000B0EE413AB0EE604AB0EE405ACDED071A92
:104AB0008DED061ACDED050A8DED040A43F278500E
:104AC000C2F200000499059A069BDDF81CC0C0F8EC
:104AD000DCC2C0F8D832C0F8D422C0F8D01200F539
:104AE00034704FF4347110228DED032A8DED023AAB
:104AF0008DED014A8DED005A24F0F6FAB0FA80F0FF
:104B0000400908B080BD000080B586B0B0EE412AF3
:104B1000B0EE603AB0EE404A01468DED041ACDED9C
:104B2000030A8DED020A8DF807009DF8070003289F
:104B300004DBFFE700208DF817002CE09DF807004C
:104B400000EB8000462101EB4000ADF80400BDF809
:104B5000040043F27851C2F2000101EB8002029B93
:104B6000DDF80CC0DDF810E041F82030C2F808E0B4
:104B7000C2F804C0BDF8040001EB800180000C22E3
:104B800000900846009924F0AFFAB0FA80F040098E
:104B90008DF81700FFE79DF8170006B080BD0000F4
:104BA00080B586B0B0EE412AB0EE603AB0EE404A31
:104BB00001468DED041ACDED030A8DED020A8DF844
:104BC00007009DF80700032804DBFFE700208DF8AD
:104BD00017002CE09DF8070000EB8000492101EB55
:104BE0004000ADF80400BDF8040043F27851C2F271
:104BF000000101EB8002029BDDF80CC0DDF810E043
:104C000041F82030C2F808E0C2F804C0BDF8040042
:104C100001EB800180000C2200900846009924F0EE
:104C200063FAB0FA80F040098DF81700FFE79DF8AD
:104C3000170006B080BD000080B582B08DED010A7E
:104C40009DED010A9FED0C1A20EE010ABDEEC00A8F
:104C500010EE100A43F27851C2F2000181F82E03DF
:104C600001F54B704FF44B71042224F03DFAB0FA79
:104C700080F0400902B080BD0000C84280B582B01B
:104C80008DED010A9DED010A9FED0C1A20EE010A3F
:104C9000BDEEC00A10EE100A43F27851C2F20001D4
:104CA00081F82D0301F54B704FF44B71042224F071
:104CB0001BFAB0FA80F0400902B080BD0000C84283
:104CC00080B582B001468DF807009DF8070043F2D9
:104CD0007852C2F2000282F82C0302F54B704FF4B6
:104CE0004B720423009111461A4624F0FDF9B0FAE4
:104CF00080F0400902B080BD80B582B08DED010A20
:104D000043F27850C2F200000199C0F8301300F568
:104D10004C704FF44C71042224F0E6F9B0FA80F0A4
:104D2000400902B080BD000080B584B00A46034649
:104D30008DF80E008DED020A8DF807109DF80E001B
:104D4000032804DBFFE700208DF80F0032E09DF818
:104D50000700002805D0FFE79DF80700052804DBC1
:104D6000FFE700208DF80F0024E09DF80E0000EB17
:104D700080009DF8071001EB4000D230ADF8040030
:104D8000BDF8040043F27851C2F20001029A41F8E2
:104D90002020BDF8040001EB800180000422009077
:104DA0000846009924F0A0F9B0FA80F040098DF887
:104DB0000F00FFE79DF80F0004B080BD80B584B000
:104DC0000A4603468DF80E008DED020A8DF8071095
:104DD0009DF80E00032804DBFFE700208DF80F008C
:104DE00032E09DF80700002805D0FFE79DF8070096
:104DF000052804DBFFE700208DF80F0024E09DF874
:104E00000E0000EB80009DF8071001EB4000D6304B
:104E1000ADF80400BDF8040043F27851C2F200017D
:104E2000029A41F82020BDF8040001EB80018000C7
:104E3000042200900846009924F056F9B0FA80F058
:104E400040098DF80F00FFE79DF80F0004B080BD0A
:104E500080B584B001468DF80E008DED020A9DF8F4
:104E60000E00032804DBFFE700208DF80F0022E08E
:104E70009DF80E0000EB8000D22101EB4000ADF860
:104E80000600BDF8060043F27851C2F20001029A12
:104E900041F82020BDF8060001EB800180000422CB
:104EA00000900846009924F01FF9B0FA80F04009FC
:104EB0008DF80F00FFE79DF80F0004B080BD0000E3
:104EC00080B582B001468DF807009DF8070043F2D7
:104ED0007852C2F2000282F8200302F548704FF4C3
:104EE00048720423009111461A4624F0FDF8B0FAE6
:104EF00080F0400902B080BD80B582B00190019879
:104F000001684268806843F27853C2F20003C3F834
:104F1000FC07C3F8F827C3F8F41703F2F47040F263
:104F2000F4710C2224F0E0F8B0FA80F0400902B0ED
:104F300080BD000010B5DEB002468DF877015C91AF
:104F40005C980C305B905B9800685A905A98599026
:104F50009DF864010C920AF0EBFD589058980028D7
:104F600006D1FFE79DF864010DF034FE5890FFE78D
:104F700000200B900AF0D6FD00280B980A9004D070
:104F8000FFE70DF021FE0A90FFE70A9800F001000C
:104F90008DF85F019DF877011AF018FD569056982C
:104FA0000068002827D0FFE79DF877219DF864016D
:104FB00058995C9B93F807C01B7A9DF85FE16C469B
:104FC0006361C4F810C0E160A0600EF00100606091
:104FD0000A20206001200DA90990099B089119461B
:104FE000089B1FF081FE56990968079008460899AA
:104FF00020F090FAFFE75EB010BD000080B588B0E9
:1050000002468DF81F00069106980C300590059811
:1050100000680190019802900598406801900198FD
:1050200003900598806801900198049002A800926E
:10503000FFF762FF08B080BD80B586B002468DF8EC
:105040001700049104980C30039001921AF032FE7C
:105050008DF80B009DF80B00012818D1FFE703988D
:10506000406800EE100AB2EE041AB4EE410AF1EE06
:1050700010FA0CDBFFE70398406800EE100AB3EE6D
:10508000031AB4EE410AF1EE10FA16DDFFE79DF8BF
:105090000B000A281CDBFFE79DF80B00132817DC28
:1050A000FFE70398406800EE100AB7EE001AB4EE6E
:1050B000410AF1EE10FA0BD1FFE70398406800EEC9
:1050C000100ABDEEC00A10EE100A15F075FCFFE7DD
:1050D00006B080BD83B002468DF80B0001910198A7
:1050E0000C30009003B0704780B5D8B002468DF800
:1050F0005F01569156980C3055909DF85F010892CB
:105100001AF064FC54905498006800281CD0FFE703
:105110009DF85F21684609A90161C160C8218160CD
:1051200064234360016001200BA90790079B06914F
:105130001946069B20F008F854990968059008461E
:10514000069920F0E7F9FFE758B080BD80B5D0B0F0
:105150004F9000208DF81700FFE79DF817000328F7
:1051600000F38C80FFE79DF8170000EB400041F250
:10517000F841C2F2000101EB80004068002876D0BF
:10518000FFE79DF8170000EB400041F2F841C2F242
:10519000000101EB800040680DF10D010A22019031
:1051A00008461146019A90478DF80C0000208DF8B2
:1051B0000B008DF80A00FFE79DF80A009DF80C101F
:1051C00088424CDAFFE79DF817009DF80A100DF1B0
:1051D0000D02515C06AA002320F018FB002837D0EE
:1051E000FFE701208DF80B009DF82300BDF821108A
:1051F00041EA004042F6D871C0F2030109888842B2
:1052000025DAFFE79DF82300BDF8211041EA0040B0
:1052100042F65031C0F2030151F82000002815D0A9
:10522000FFE79DF82300BDF8211041EA004042F657
:105230005031C0F2030151F820009DF8171006AA62
:10524000009008461146009A9047FFE7FFE7FFE706
:10525000FFE79DF80A0001308DF80A00ACE79DF8E1
:105260000B00C007002801D0FFE707E0FFE7FFE7DA
:105270009DF8170001308DF817006EE750B080BD23
:1052800080B584B0029000208DF80700FFE79DF8FC
:105290000700032829DCFFE79DF8070000EB40002A
:1052A00041F2F841C2F2000101EB80008068002861
:1052B00014D0FFE79DF8070000EB400041F2F841F1
:1052C000C2F2000101EB800080688047002804D012
:1052D000FFE701208DF80F000BE0FFE7FFE79DF8E7
:1052E000070001308DF80700D1E700208DF80F008E
:1052F000FFE79DF80F0004B080BD000080B5DCB072
:105300005B9041F2F440C2F200000188013101805B
:1053100088B2642849DBFFE741F2F440C2F20000A2
:10532000002101808DF84710FFE79DF84700032812
:105330003ADCFFE79DF8470000EB400041F2F841FE
:10534000C2F2000151F82000002826D0FFE79DF8A6
:1053500047206846032101614FF6FF71C1600021BB
:105360008160416002210160012012A90F900F9B12
:105370000E9119460E9B1FF075FD9DF8471001EB2D
:10538000410141F2F842C2F2000252F821100D90A0
:1053900008460E9920F000F8FFE7FFE79DF8470068
:1053A00001308DF84700C0E7FFE700208DF8460088
:1053B000FFE79DF84600032800F38F80FFE79DF884
:1053C000460000EB400041F2F841C2F2000151F802
:1053D000200000287AD0FFE700208DF84500FFE785
:1053E0009DF84500092870DCFFE79DF8460000EBBA
:1053F000800042F68471C2F2000101EBC0009DF80A
:10540000451030F82100002858D0FFE79DF84600ED
:1054100000EB800042F68471C2F2000101EBC00093
:105420009DF8452000EB8200C2780132C270D0B2F4
:105430009DF8462002EB820201EBC2019DF8452057
:1054400001EB82018978884237DBFFE79DF846004F
:1054500000EB800042F68471C2F2000101EBC00053
:105460009DF8452000EB82000022C2709DF84600A6
:1054700000EB800201EBC2019DF8452031F82210BB
:1054800042F6DC72C0F2030252F8211012AA0C910B
:1054900011460C9A904700280ED0FFE79DF8460071
:1054A00000EB400041F2F841C2F2000151F8200047
:1054B00012A91FF071FFFFE7FFE7FFE7FFE79DF885
:1054C000450001308DF845008AE7FFE7FFE79DF8CA
:1054D000460001308DF846006BE740F2CC00C2F286
:1054E0000000B0F9000000286BD4FFE700208DF821
:1054F0004400FFE79DF8440003285ADCFFE79DF8CD
:10550000440000EB400041F2F841C2F2000101EB1F
:105510008000109010980068002843D0FFE79DF8A5
:10552000442040F2CC00C2F20000B0F90010C1EB00
:10553000C10143F26843C0F2030303EB810101F1AF
:10554000010C89690B920A900993CDF820C0884715
:105550000A9801880AB2C2EBC202099B13F8222002
:1055600043F6200CC0F2030CBCF800C0EE46CEF8A7
:105570000C10CEF808C0CEF804200899CEF8001020
:10558000012112AA0846DDF82CC007926246079B4B
:105590001FF016FD109909680690084607991FF03C
:1055A000FBFEFFE7FFE79DF8440001308DF8440063
:1055B000A0E740F2CC00C2F200000188013901806E
:1055C000FFE75CB080BD000081B00090009890EDD6
:1055D000060A90ED081A31EE000A01B0704700008B
:1055E00081B00090009890ED070A01B0704700006C
:1055F00081B00090009890ED080A01B0704700005B
:1056000081B00090009890ED060A01B0704700004C
:105610008EB002A90D9081ED0A0AC1ED090A91ED43
:105620000A0A0D9890ED0A1A30EE410A81ED080A37
:1056300091ED080A0020B5EE400AF1EE10FAC8BF5D
:1056400001200D9A92F83C2080EA02004FEAC070D7
:105650000028009110D0FFE70D9800210164009808
:1056600090ED080AB5EE400AF1EE10FAC8BF01212C
:105670000D9A82F83C100AE0009890ED090A0D9905
:1056800091ED101A31EE000A81ED100AFFE70D9836
:1056900090ED000A9FED7B1A81EE000A009880EDE4
:1056A000070A0D9991ED100A20EE001A21EE000A6A
:1056B00080ED060A0D9991ED020A90ED061A20EE92
:1056C000010AB7EE001A30EE010A80ED050A0D99C5
:1056D00091ED030A90ED062A20EE020A30EE010A4F
:1056E00080ED040A90ED050AB2EE0E1AB4EE410AFE
:1056F000F1EE10FA05DDFFE70020C4F2701007900C
:10570000FFE7009890ED040AB2EE0E1AB4EE410ADB
:10571000F1EE10FA05DDFFE70020C4F270100690EC
:10572000FFE7009890ED050A90ED071AB4EE410AE4
:10573000F1EE10FA03DDFFE709980790FFE7009804
:1057400090ED050A0D9991ED001A20EE010A90EDF9
:10575000081A20EE010A80ED030A90ED040A0D9963
:1057600091ED011A20EE010A90ED081A20EE010ACF
:1057700080ED020A90ED030A90ED091AB1EE002ABD
:1057800021EE021A80EE010A80ED010A90ED020A74
:10579000B0EEC00A90ED011AB0EEC11AB4EE410AA3
:1057A000F1EE10FA05DDFFE7039804900020059064
:1057B00011E0009890ED020AB9EE001A20EE010AFD
:1057C00090ED091A20EE010A90ED031A31EE000A5D
:1057D00080ED030AFFE70B98029000208DF8070088
:1057E000FFE79DF80700022825DCFFE70D989DF8EC
:1057F000071000EB810090ED0B0A009991ED031A60
:1058000030EE010A91ED001A91ED022A21EE021A02
:1058100030EE010A80ED0A0A91ED090A91ED001AB5
:1058200031EE000A81ED000AFFE79DF80700013024
:105830008DF80700D5E7009890ED020A0D9991EDDB
:10584000081A31EE000A81ED080A90ED030A90ED86
:10585000001A90ED022A21EE021A30EE010A0D998B
:1058600091ED071A31EE000A81ED070A0D99CA6918
:105870004A630B990D9A91630D9991ED080A0EB048
:10588000704700BF6666663F82B001908DED000AEA
:10589000009801994862019890ED050A90ED061A6A
:1058A00090ED092A90ED0E3A23EE000A90ED113AA0
:1058B00023EE022A32EE412A20EE020A31EE000ADD
:1058C00080ED060A019890ED060A90ED071A90ED1A
:1058D000082A90ED0E3A30EE020A23EE000A31EE6D
:1058E000000A80ED070A02B07047000080B586B05C
:1058F00003A9059081ED010AC1ED000A059800F1A8
:105900003C021C30082301901046019A0091114678
:105910001A4612F033F9049805994860009890ED02
:10592000010AB7EE001A81EE000A059981ED020A1C
:105930000399059A1160059900228A6105990A6107
:1059400005994FF07E534B618DF80B20FFE79DF8D2
:105950000B0007280EDCFFE705989DF80B1000EB05
:1059600081000021C161FFE79DF80B0001308DF837
:105970000B00ECE706B080BD80B588B007908DEDD8
:10598000060ACDED050A079890ED050AB7EE001A54
:10599000B4EE410AF1EE10FA05DAFFE707984FF08E
:1059A0007E514161FFE7079890ED050A9FED661A69
:1059B00081EE000A8DED040A07983C30072112F0B1
:1059C0009DF88DED030A9DED030A9FED601AB4EE7C
:1059D000410AF1EE10FA40F39680FFE79DED030ACD
:1059E0009DED061A9FED582A31EE021A80EE010A4B
:1059F00020EE020A8DED020A9DED020A079890ED55
:105A0000051A30EE410A8DED010A9DED010A0020D4
:105A1000B5EE400AF1EE10FAC8BF0120079991F8DF
:105A20004C1080EA01004FEAC07000280FD0FFE759
:105A30000798002101659DED010AB5EE400AF1EEDF
:105A400010FAC8BF0121079880F84C1009E09DEDBD
:105A5000050A079890ED141A31EE000A80ED140A39
:105A6000FFE79DED010AB2EE041AB4EE410AF1EE31
:105A700010FA05DDFFE70020C4F2201001900FE0CE
:105A80009DED010ABAEE041AB4EE410AF1EE10FAE5
:105A900005DAFFE70020CCF220100190FFE7FFE7D6
:105AA000079890ED000A90ED141A9FED292A21EE37
:105AB000022A22EE012A22EE011AB7EE002A31EE66
:105AC000021A20EE010A8DED000A9DED000A9FEDFD
:105AD000211AB4EE410AF1EE10FA06DDFFE74CF6AA
